{
  "contractName": "CryptoCoders",
  "abi": [
    {
      "inputs": [],
      "stateMutability": "nonpayable",
      "type": "constructor"
    },
    {
      "anonymous": false,
      "inputs": [
        {
          "indexed": true,
          "internalType": "address",
          "name": "owner",
          "type": "address"
        },
        {
          "indexed": true,
          "internalType": "address",
          "name": "approved",
          "type": "address"
        },
        {
          "indexed": true,
          "internalType": "uint256",
          "name": "tokenId",
          "type": "uint256"
        }
      ],
      "name": "Approval",
      "type": "event"
    },
    {
      "anonymous": false,
      "inputs": [
        {
          "indexed": true,
          "internalType": "address",
          "name": "owner",
          "type": "address"
        },
        {
          "indexed": true,
          "internalType": "address",
          "name": "operator",
          "type": "address"
        },
        {
          "indexed": false,
          "internalType": "bool",
          "name": "approved",
          "type": "bool"
        }
      ],
      "name": "ApprovalForAll",
      "type": "event"
    },
    {
      "anonymous": false,
      "inputs": [
        {
          "indexed": true,
          "internalType": "address",
          "name": "from",
          "type": "address"
        },
        {
          "indexed": true,
          "internalType": "address",
          "name": "to",
          "type": "address"
        },
        {
          "indexed": true,
          "internalType": "uint256",
          "name": "tokenId",
          "type": "uint256"
        }
      ],
      "name": "Transfer",
      "type": "event"
    },
    {
      "inputs": [
        {
          "internalType": "address",
          "name": "to",
          "type": "address"
        },
        {
          "internalType": "uint256",
          "name": "tokenId",
          "type": "uint256"
        }
      ],
      "name": "approve",
      "outputs": [],
      "stateMutability": "nonpayable",
      "type": "function"
    },
    {
      "inputs": [
        {
          "internalType": "address",
          "name": "owner",
          "type": "address"
        }
      ],
      "name": "balanceOf",
      "outputs": [
        {
          "internalType": "uint256",
          "name": "",
          "type": "uint256"
        }
      ],
      "stateMutability": "view",
      "type": "function",
      "constant": true
    },
    {
      "inputs": [
        {
          "internalType": "uint256",
          "name": "",
          "type": "uint256"
        }
      ],
      "name": "coders",
      "outputs": [
        {
          "internalType": "string",
          "name": "",
          "type": "string"
        }
      ],
      "stateMutability": "view",
      "type": "function",
      "constant": true
    },
    {
      "inputs": [
        {
          "internalType": "uint256",
          "name": "tokenId",
          "type": "uint256"
        }
      ],
      "name": "getApproved",
      "outputs": [
        {
          "internalType": "address",
          "name": "",
          "type": "address"
        }
      ],
      "stateMutability": "view",
      "type": "function",
      "constant": true
    },
    {
      "inputs": [
        {
          "internalType": "address",
          "name": "owner",
          "type": "address"
        },
        {
          "internalType": "address",
          "name": "operator",
          "type": "address"
        }
      ],
      "name": "isApprovedForAll",
      "outputs": [
        {
          "internalType": "bool",
          "name": "",
          "type": "bool"
        }
      ],
      "stateMutability": "view",
      "type": "function",
      "constant": true
    },
    {
      "inputs": [],
      "name": "name",
      "outputs": [
        {
          "internalType": "string",
          "name": "",
          "type": "string"
        }
      ],
      "stateMutability": "view",
      "type": "function",
      "constant": true
    },
    {
      "inputs": [
        {
          "internalType": "uint256",
          "name": "tokenId",
          "type": "uint256"
        }
      ],
      "name": "ownerOf",
      "outputs": [
        {
          "internalType": "address",
          "name": "",
          "type": "address"
        }
      ],
      "stateMutability": "view",
      "type": "function",
      "constant": true
    },
    {
      "inputs": [
        {
          "internalType": "address",
          "name": "from",
          "type": "address"
        },
        {
          "internalType": "address",
          "name": "to",
          "type": "address"
        },
        {
          "internalType": "uint256",
          "name": "tokenId",
          "type": "uint256"
        }
      ],
      "name": "safeTransferFrom",
      "outputs": [],
      "stateMutability": "nonpayable",
      "type": "function"
    },
    {
      "inputs": [
        {
          "internalType": "address",
          "name": "from",
          "type": "address"
        },
        {
          "internalType": "address",
          "name": "to",
          "type": "address"
        },
        {
          "internalType": "uint256",
          "name": "tokenId",
          "type": "uint256"
        },
        {
          "internalType": "bytes",
          "name": "data",
          "type": "bytes"
        }
      ],
      "name": "safeTransferFrom",
      "outputs": [],
      "stateMutability": "nonpayable",
      "type": "function"
    },
    {
      "inputs": [
        {
          "internalType": "address",
          "name": "operator",
          "type": "address"
        },
        {
          "internalType": "bool",
          "name": "approved",
          "type": "bool"
        }
      ],
      "name": "setApprovalForAll",
      "outputs": [],
      "stateMutability": "nonpayable",
      "type": "function"
    },
    {
      "inputs": [],
      "name": "symbol",
      "outputs": [
        {
          "internalType": "string",
          "name": "",
          "type": "string"
        }
      ],
      "stateMutability": "view",
      "type": "function",
      "constant": true
    },
    {
      "inputs": [
        {
          "internalType": "uint256",
          "name": "index",
          "type": "uint256"
        }
      ],
      "name": "tokenByIndex",
      "outputs": [
        {
          "internalType": "uint256",
          "name": "",
          "type": "uint256"
        }
      ],
      "stateMutability": "view",
      "type": "function",
      "constant": true
    },
    {
      "inputs": [
        {
          "internalType": "address",
          "name": "owner",
          "type": "address"
        },
        {
          "internalType": "uint256",
          "name": "index",
          "type": "uint256"
        }
      ],
      "name": "tokenOfOwnerByIndex",
      "outputs": [
        {
          "internalType": "uint256",
          "name": "",
          "type": "uint256"
        }
      ],
      "stateMutability": "view",
      "type": "function",
      "constant": true
    },
    {
      "inputs": [
        {
          "internalType": "uint256",
          "name": "tokenId",
          "type": "uint256"
        }
      ],
      "name": "tokenURI",
      "outputs": [
        {
          "internalType": "string",
          "name": "",
          "type": "string"
        }
      ],
      "stateMutability": "view",
      "type": "function",
      "constant": true
    },
    {
      "inputs": [],
      "name": "totalSupply",
      "outputs": [
        {
          "internalType": "uint256",
          "name": "",
          "type": "uint256"
        }
      ],
      "stateMutability": "view",
      "type": "function",
      "constant": true
    },
    {
      "inputs": [
        {
          "internalType": "address",
          "name": "from",
          "type": "address"
        },
        {
          "internalType": "address",
          "name": "to",
          "type": "address"
        },
        {
          "internalType": "uint256",
          "name": "tokenId",
          "type": "uint256"
        }
      ],
      "name": "transferFrom",
      "outputs": [],
      "stateMutability": "nonpayable",
      "type": "function"
    },
    {
      "inputs": [
        {
          "internalType": "string",
          "name": "coder",
          "type": "string"
        }
      ],
      "name": "mint",
      "outputs": [],
      "stateMutability": "nonpayable",
      "type": "function"
    },
    {
      "inputs": [
        {
          "internalType": "bytes4",
          "name": "interfaceId",
          "type": "bytes4"
        }
      ],
      "name": "supportsInterface",
      "outputs": [
        {
          "internalType": "bool",
          "name": "",
          "type": "bool"
        }
      ],
      "stateMutability": "view",
      "type": "function",
      "constant": true
    }
  ],
  "bytecode": "0x60806040523480156200001157600080fd5b506040518060400160405280600c81526020017f43727970746f436f6465727300000000000000000000000000000000000000008152506040518060400160405280600381526020017f4353530000000000000000000000000000000000000000000000000000000000815250816000908051906020019062000096929190620000b8565b508060019080519060200190620000af929190620000b8565b505050620001cd565b828054620000c69062000197565b90600052602060002090601f016020900481019282620000ea576000855562000136565b82601f106200010557805160ff191683800117855562000136565b8280016001018555821562000136579182015b828111156200013557825182559160200191906001019062000118565b5b50905062000145919062000149565b5090565b5b80821115620001645760008160009055506001016200014a565b5090565b7f4e487b7100000000000000000000000000000000000000000000000000000000600052602260045260246000fd5b60006002820490506001821680620001b057607f821691505b60208210811415620001c757620001c662000168565b5b50919050565b612f9380620001dd6000396000f3fe608060405234801561001057600080fd5b50600436106101165760003560e01c80634f6ccce7116100a2578063a22cb46511610071578063a22cb46514610319578063b88d4fde14610335578063c87b56dd14610351578063d85d3d2714610381578063e985e9c51461039d57610116565b80634f6ccce71461026b5780636352211e1461029b57806370a08231146102cb57806395d89b41146102fb57610116565b806318160ddd116100e957806318160ddd146101b557806323b872dd146101d35780632f745c59146101ef57806342842e0e1461021f5780634cfa16f91461023b57610116565b806301ffc9a71461011b57806306fdde031461014b578063081812fc14610169578063095ea7b314610199575b600080fd5b61013560048036038101906101309190611e9e565b6103cd565b6040516101429190611ee6565b60405180910390f35b6101536103df565b6040516101609190611f9a565b60405180910390f35b610183600480360381019061017e9190611ff2565b610471565b6040516101909190612060565b60405180910390f35b6101b360048036038101906101ae91906120a7565b6104b7565b005b6101bd6105cf565b6040516101ca91906120f6565b60405180910390f35b6101ed60048036038101906101e89190612111565b6105dc565b005b610209600480360381019061020491906120a7565b61063c565b60405161021691906120f6565b60405180910390f35b61023960048036038101906102349190612111565b6106e1565b005b61025560048036038101906102509190611ff2565b610701565b6040516102629190611f9a565b60405180910390f35b61028560048036038101906102809190611ff2565b6107ad565b60405161029291906120f6565b60405180910390f35b6102b560048036038101906102b09190611ff2565b61081e565b6040516102c29190612060565b60405180910390f35b6102e560048036038101906102e09190612164565b6108d0565b6040516102f291906120f6565b60405180910390f35b610303610988565b6040516103109190611f9a565b60405180910390f35b610333600480360381019061032e91906121bd565b610a1a565b005b61034f600480360381019061034a9190612332565b610a30565b005b61036b60048036038101906103669190611ff2565b610a92565b6040516103789190611f9a565b60405180910390f35b61039b60048036038101906103969190612456565b610afa565b005b6103b760048036038101906103b2919061249f565b610bc7565b6040516103c49190611ee6565b60405180910390f35b60006103d882610c5b565b9050919050565b6060600080546103ee9061250e565b80601f016020809104026020016040519081016040528092919081815260200182805461041a9061250e565b80156104675780601f1061043c57610100808354040283529160200191610467565b820191906000526020600020905b81548152906001019060200180831161044a57829003601f168201915b5050505050905090565b600061047c82610cd5565b6004600083815260200190815260200160002060009054906101000a900473ffffffffffffffffffffffffffffffffffffffff169050919050565b60006104c28261081e565b90508073ffffffffffffffffffffffffffffffffffffffff168373ffffffffffffffffffffffffffffffffffffffff161415610533576040517f08c379a000000000000000000000000000000000000000000000000000000000815260040161052a906125b2565b60405180910390fd5b8073ffffffffffffffffffffffffffffffffffffffff16610552610d20565b73ffffffffffffffffffffffffffffffffffffffff16148061058157506105808161057b610d20565b610bc7565b5b6105c0576040517f08c379a00000000000000000000000000000000000000000000000000000000081526004016105b790612644565b60405180910390fd5b6105ca8383610d28565b505050565b6000600880549050905090565b6105ed6105e7610d20565b82610de1565b61062c576040517f08c379a0000000000000000000000000000000000000000000000000000000008152600401610623906126d6565b60405180910390fd5b610637838383610e76565b505050565b6000610647836108d0565b8210610688576040517f08c379a000000000000000000000000000000000000000000000000000000000815260040161067f90612768565b60405180910390fd5b600660008473ffffffffffffffffffffffffffffffffffffffff1673ffffffffffffffffffffffffffffffffffffffff168152602001908152602001600020600083815260200190815260200160002054905092915050565b6106fc83838360405180602001604052806000815250610a30565b505050565b600a818154811061071157600080fd5b90600052602060002001600091509050805461072c9061250e565b80601f01602080910402602001604051908101604052809291908181526020018280546107589061250e565b80156107a55780601f1061077a576101008083540402835291602001916107a5565b820191906000526020600020905b81548152906001019060200180831161078857829003601f168201915b505050505081565b60006107b76105cf565b82106107f8576040517f08c379a00000000000000000000000000000000000000000000000000000000081526004016107ef906127fa565b60405180910390fd5b6008828154811061080c5761080b61281a565b5b90600052602060002001549050919050565b6000806002600084815260200190815260200160002060009054906101000a900473ffffffffffffffffffffffffffffffffffffffff169050600073ffffffffffffffffffffffffffffffffffffffff168173ffffffffffffffffffffffffffffffffffffffff1614156108c7576040517f08c379a00000000000000000000000000000000000000000000000000000000081526004016108be90612895565b60405180910390fd5b80915050919050565b60008073ffffffffffffffffffffffffffffffffffffffff168273ffffffffffffffffffffffffffffffffffffffff161415610941576040517f08c379a000000000000000000000000000000000000000000000000000000000815260040161093890612927565b60405180910390fd5b600360008373ffffffffffffffffffffffffffffffffffffffff1673ffffffffffffffffffffffffffffffffffffffff168152602001908152602001600020549050919050565b6060600180546109979061250e565b80601f01602080910402602001604051908101604052809291908181526020018280546109c39061250e565b8015610a105780601f106109e557610100808354040283529160200191610a10565b820191906000526020600020905b8154815290600101906020018083116109f357829003601f168201915b5050505050905090565b610a2c610a25610d20565b83836110dd565b5050565b610a41610a3b610d20565b83610de1565b610a80576040517f08c379a0000000000000000000000000000000000000000000000000000000008152600401610a77906126d6565b60405180910390fd5b610a8c8484848461124a565b50505050565b6060610a9d82610cd5565b6000610aa76112a6565b90506000815111610ac75760405180602001604052806000815250610af2565b80610ad1846112bd565b604051602001610ae2929190612983565b6040516020818303038152906040525b915050919050565b600b81604051610b0a91906129a7565b908152602001604051809103902060009054906101000a900460ff1615610b3057600080fd5b600a81908060018154018082558091505060019003906000526020600020016000909190919091509080519060200190610b6b929190611d8f565b5060006001600a80549050610b8091906129ed565b9050610b8c338261141e565b6001600b83604051610b9e91906129a7565b908152602001604051809103902060006101000a81548160ff0219169083151502179055505050565b6000600560008473ffffffffffffffffffffffffffffffffffffffff1673ffffffffffffffffffffffffffffffffffffffff16815260200190815260200160002060008373ffffffffffffffffffffffffffffffffffffffff1673ffffffffffffffffffffffffffffffffffffffff16815260200190815260200160002060009054906101000a900460ff16905092915050565b60007f780e9d63000000000000000000000000000000000000000000000000000000007bffffffffffffffffffffffffffffffffffffffffffffffffffffffff1916827bffffffffffffffffffffffffffffffffffffffffffffffffffffffff19161480610cce5750610ccd826115f8565b5b9050919050565b610cde816116da565b610d1d576040517f08c379a0000000000000000000000000000000000000000000000000000000008152600401610d1490612895565b60405180910390fd5b50565b600033905090565b816004600083815260200190815260200160002060006101000a81548173ffffffffffffffffffffffffffffffffffffffff021916908373ffffffffffffffffffffffffffffffffffffffff160217905550808273ffffffffffffffffffffffffffffffffffffffff16610d9b8361081e565b73ffffffffffffffffffffffffffffffffffffffff167f8c5be1e5ebec7d5bd14f71427d1e84f3dd0314c0f7b2291e5b200ac8c7c3b92560405160405180910390a45050565b600080610ded8361081e565b90508073ffffffffffffffffffffffffffffffffffffffff168473ffffffffffffffffffffffffffffffffffffffff161480610e2f5750610e2e8185610bc7565b5b80610e6d57508373ffffffffffffffffffffffffffffffffffffffff16610e5584610471565b73ffffffffffffffffffffffffffffffffffffffff16145b91505092915050565b8273ffffffffffffffffffffffffffffffffffffffff16610e968261081e565b73ffffffffffffffffffffffffffffffffffffffff1614610eec576040517f08c379a0000000000000000000000000000000000000000000000000000000008152600401610ee390612a93565b60405180910390fd5b600073ffffffffffffffffffffffffffffffffffffffff168273ffffffffffffffffffffffffffffffffffffffff161415610f5c576040517f08c379a0000000000000000000000000000000000000000000000000000000008152600401610f5390612b25565b60405180910390fd5b610f67838383611746565b610f72600082610d28565b6001600360008573ffffffffffffffffffffffffffffffffffffffff1673ffffffffffffffffffffffffffffffffffffffff1681526020019081526020016000206000828254610fc291906129ed565b925050819055506001600360008473ffffffffffffffffffffffffffffffffffffffff1673ffffffffffffffffffffffffffffffffffffffff16815260200190815260200160002060008282546110199190612b45565b92505081905550816002600083815260200190815260200160002060006101000a81548173ffffffffffffffffffffffffffffffffffffffff021916908373ffffffffffffffffffffffffffffffffffffffff160217905550808273ffffffffffffffffffffffffffffffffffffffff168473ffffffffffffffffffffffffffffffffffffffff167fddf252ad1be2c89b69c2b068fc378daa952ba7f163c4a11628f55a4df523b3ef60405160405180910390a46110d8838383611756565b505050565b8173ffffffffffffffffffffffffffffffffffffffff168373ffffffffffffffffffffffffffffffffffffffff16141561114c576040517f08c379a000000000000000000000000000000000000000000000000000000000815260040161114390612be7565b60405180910390fd5b80600560008573ffffffffffffffffffffffffffffffffffffffff1673ffffffffffffffffffffffffffffffffffffffff16815260200190815260200160002060008473ffffffffffffffffffffffffffffffffffffffff1673ffffffffffffffffffffffffffffffffffffffff16815260200190815260200160002060006101000a81548160ff0219169083151502179055508173ffffffffffffffffffffffffffffffffffffffff168373ffffffffffffffffffffffffffffffffffffffff167f17307eab39ab6107e8899845ad3d59bd9653f200f220920489ca2b5937696c318360405161123d9190611ee6565b60405180910390a3505050565b611255848484610e76565b6112618484848461175b565b6112a0576040517f08c379a000000000000000000000000000000000000000000000000000000000815260040161129790612c79565b60405180910390fd5b50505050565b606060405180602001604052806000815250905090565b60606000821415611305576040518060400160405280600181526020017f30000000000000000000000000000000000000000000000000000000000000008152509050611419565b600082905060005b6000821461133757808061132090612c99565b915050600a826113309190612d11565b915061130d565b60008167ffffffffffffffff81111561135357611352612207565b5b6040519080825280601f01601f1916602001820160405280156113855781602001600182028036833780820191505090505b5090505b600085146114125760018261139e91906129ed565b9150600a856113ad9190612d42565b60306113b99190612b45565b60f81b8183815181106113cf576113ce61281a565b5b60200101907effffffffffffffffffffffffffffffffffffffffffffffffffffffffffffff1916908160001a905350600a8561140b9190612d11565b9450611389565b8093505050505b919050565b600073ffffffffffffffffffffffffffffffffffffffff168273ffffffffffffffffffffffffffffffffffffffff16141561148e576040517f08c379a000000000000000000000000000000000000000000000000000000000815260040161148590612dbf565b60405180910390fd5b611497816116da565b156114d7576040517f08c379a00000000000000000000000000000000000000000000000000000000081526004016114ce90612e2b565b60405180910390fd5b6114e360008383611746565b6001600360008473ffffffffffffffffffffffffffffffffffffffff1673ffffffffffffffffffffffffffffffffffffffff16815260200190815260200160002060008282546115339190612b45565b92505081905550816002600083815260200190815260200160002060006101000a81548173ffffffffffffffffffffffffffffffffffffffff021916908373ffffffffffffffffffffffffffffffffffffffff160217905550808273ffffffffffffffffffffffffffffffffffffffff16600073ffffffffffffffffffffffffffffffffffffffff167fddf252ad1be2c89b69c2b068fc378daa952ba7f163c4a11628f55a4df523b3ef60405160405180910390a46115f460008383611756565b5050565b60007f80ac58cd000000000000000000000000000000000000000000000000000000007bffffffffffffffffffffffffffffffffffffffffffffffffffffffff1916827bffffffffffffffffffffffffffffffffffffffffffffffffffffffff191614806116c357507f5b5e139f000000000000000000000000000000000000000000000000000000007bffffffffffffffffffffffffffffffffffffffffffffffffffffffff1916827bffffffffffffffffffffffffffffffffffffffffffffffffffffffff1916145b806116d357506116d2826118e3565b5b9050919050565b60008073ffffffffffffffffffffffffffffffffffffffff166002600084815260200190815260200160002060009054906101000a900473ffffffffffffffffffffffffffffffffffffffff1673ffffffffffffffffffffffffffffffffffffffff1614159050919050565b61175183838361194d565b505050565b505050565b600061177c8473ffffffffffffffffffffffffffffffffffffffff16611a61565b156118d6578373ffffffffffffffffffffffffffffffffffffffff1663150b7a026117a5610d20565b8786866040518563ffffffff1660e01b81526004016117c79493929190612ea0565b6020604051808303816000875af192505050801561180357506040513d601f19601f820116820180604052508101906118009190612f01565b60015b611886573d8060008114611833576040519150601f19603f3d011682016040523d82523d6000602084013e611838565b606091505b5060008151141561187e576040517f08c379a000000000000000000000000000000000000000000000000000000000815260040161187590612c79565b60405180910390fd5b805181602001fd5b63150b7a0260e01b7bffffffffffffffffffffffffffffffffffffffffffffffffffffffff1916817bffffffffffffffffffffffffffffffffffffffffffffffffffffffff1916149150506118db565b600190505b949350505050565b60007f01ffc9a7000000000000000000000000000000000000000000000000000000007bffffffffffffffffffffffffffffffffffffffffffffffffffffffff1916827bffffffffffffffffffffffffffffffffffffffffffffffffffffffff1916149050919050565b611958838383611a84565b600073ffffffffffffffffffffffffffffffffffffffff168373ffffffffffffffffffffffffffffffffffffffff16141561199b5761199681611a89565b6119da565b8173ffffffffffffffffffffffffffffffffffffffff168373ffffffffffffffffffffffffffffffffffffffff16146119d9576119d88382611ad2565b5b5b600073ffffffffffffffffffffffffffffffffffffffff168273ffffffffffffffffffffffffffffffffffffffff161415611a1d57611a1881611c3f565b611a5c565b8273ffffffffffffffffffffffffffffffffffffffff168273ffffffffffffffffffffffffffffffffffffffff1614611a5b57611a5a8282611d10565b5b5b505050565b6000808273ffffffffffffffffffffffffffffffffffffffff163b119050919050565b505050565b6008805490506009600083815260200190815260200160002081905550600881908060018154018082558091505060019003906000526020600020016000909190919091505550565b60006001611adf846108d0565b611ae991906129ed565b9050600060076000848152602001908152602001600020549050818114611bce576000600660008673ffffffffffffffffffffffffffffffffffffffff1673ffffffffffffffffffffffffffffffffffffffff168152602001908152602001600020600084815260200190815260200160002054905080600660008773ffffffffffffffffffffffffffffffffffffffff1673ffffffffffffffffffffffffffffffffffffffff168152602001908152602001600020600084815260200190815260200160002081905550816007600083815260200190815260200160002081905550505b6007600084815260200190815260200160002060009055600660008573ffffffffffffffffffffffffffffffffffffffff1673ffffffffffffffffffffffffffffffffffffffff16815260200190815260200160002060008381526020019081526020016000206000905550505050565b60006001600880549050611c5391906129ed565b9050600060096000848152602001908152602001600020549050600060088381548110611c8357611c8261281a565b5b906000526020600020015490508060088381548110611ca557611ca461281a565b5b906000526020600020018190555081600960008381526020019081526020016000208190555060096000858152602001908152602001600020600090556008805480611cf457611cf3612f2e565b5b6001900381819060005260206000200160009055905550505050565b6000611d1b836108d0565b905081600660008573ffffffffffffffffffffffffffffffffffffffff1673ffffffffffffffffffffffffffffffffffffffff168152602001908152602001600020600083815260200190815260200160002081905550806007600084815260200190815260200160002081905550505050565b828054611d9b9061250e565b90600052602060002090601f016020900481019282611dbd5760008555611e04565b82601f10611dd657805160ff1916838001178555611e04565b82800160010185558215611e04579182015b82811115611e03578251825591602001919060010190611de8565b5b509050611e119190611e15565b5090565b5b80821115611e2e576000816000905550600101611e16565b5090565b6000604051905090565b600080fd5b600080fd5b60007fffffffff0000000000000000000000000000000000000000000000000000000082169050919050565b611e7b81611e46565b8114611e8657600080fd5b50565b600081359050611e9881611e72565b92915050565b600060208284031215611eb457611eb3611e3c565b5b6000611ec284828501611e89565b91505092915050565b60008115159050919050565b611ee081611ecb565b82525050565b6000602082019050611efb6000830184611ed7565b92915050565b600081519050919050565b600082825260208201905092915050565b60005b83811015611f3b578082015181840152602081019050611f20565b83811115611f4a576000848401525b50505050565b6000601f19601f8301169050919050565b6000611f6c82611f01565b611f768185611f0c565b9350611f86818560208601611f1d565b611f8f81611f50565b840191505092915050565b60006020820190508181036000830152611fb48184611f61565b905092915050565b6000819050919050565b611fcf81611fbc565b8114611fda57600080fd5b50565b600081359050611fec81611fc6565b92915050565b60006020828403121561200857612007611e3c565b5b600061201684828501611fdd565b91505092915050565b600073ffffffffffffffffffffffffffffffffffffffff82169050919050565b600061204a8261201f565b9050919050565b61205a8161203f565b82525050565b60006020820190506120756000830184612051565b92915050565b6120848161203f565b811461208f57600080fd5b50565b6000813590506120a18161207b565b92915050565b600080604083850312156120be576120bd611e3c565b5b60006120cc85828601612092565b92505060206120dd85828601611fdd565b9150509250929050565b6120f081611fbc565b82525050565b600060208201905061210b60008301846120e7565b92915050565b60008060006060848603121561212a57612129611e3c565b5b600061213886828701612092565b935050602061214986828701612092565b925050604061215a86828701611fdd565b9150509250925092565b60006020828403121561217a57612179611e3c565b5b600061218884828501612092565b91505092915050565b61219a81611ecb565b81146121a557600080fd5b50565b6000813590506121b781612191565b92915050565b600080604083850312156121d4576121d3611e3c565b5b60006121e285828601612092565b92505060206121f3858286016121a8565b9150509250929050565b600080fd5b600080fd5b7f4e487b7100000000000000000000000000000000000000000000000000000000600052604160045260246000fd5b61223f82611f50565b810181811067ffffffffffffffff8211171561225e5761225d612207565b5b80604052505050565b6000612271611e32565b905061227d8282612236565b919050565b600067ffffffffffffffff82111561229d5761229c612207565b5b6122a682611f50565b9050602081019050919050565b82818337600083830152505050565b60006122d56122d084612282565b612267565b9050828152602081018484840111156122f1576122f0612202565b5b6122fc8482856122b3565b509392505050565b600082601f830112612319576123186121fd565b5b81356123298482602086016122c2565b91505092915050565b6000806000806080858703121561234c5761234b611e3c565b5b600061235a87828801612092565b945050602061236b87828801612092565b935050604061237c87828801611fdd565b925050606085013567ffffffffffffffff81111561239d5761239c611e41565b5b6123a987828801612304565b91505092959194509250565b600067ffffffffffffffff8211156123d0576123cf612207565b5b6123d982611f50565b9050602081019050919050565b60006123f96123f4846123b5565b612267565b90508281526020810184848401111561241557612414612202565b5b6124208482856122b3565b509392505050565b600082601f83011261243d5761243c6121fd565b5b813561244d8482602086016123e6565b91505092915050565b60006020828403121561246c5761246b611e3c565b5b600082013567ffffffffffffffff81111561248a57612489611e41565b5b61249684828501612428565b91505092915050565b600080604083850312156124b6576124b5611e3c565b5b60006124c485828601612092565b92505060206124d585828601612092565b9150509250929050565b7f4e487b7100000000000000000000000000000000000000000000000000000000600052602260045260246000fd5b6000600282049050600182168061252657607f821691505b6020821081141561253a576125396124df565b5b50919050565b7f4552433732313a20617070726f76616c20746f2063757272656e74206f776e6560008201527f7200000000000000000000000000000000000000000000000000000000000000602082015250565b600061259c602183611f0c565b91506125a782612540565b604082019050919050565b600060208201905081810360008301526125cb8161258f565b9050919050565b7f4552433732313a20617070726f76652063616c6c6572206973206e6f7420746f60008201527f6b656e206f776e6572206e6f7220617070726f76656420666f7220616c6c0000602082015250565b600061262e603e83611f0c565b9150612639826125d2565b604082019050919050565b6000602082019050818103600083015261265d81612621565b9050919050565b7f4552433732313a2063616c6c6572206973206e6f7420746f6b656e206f776e6560008201527f72206e6f7220617070726f766564000000000000000000000000000000000000602082015250565b60006126c0602e83611f0c565b91506126cb82612664565b604082019050919050565b600060208201905081810360008301526126ef816126b3565b9050919050565b7f455243373231456e756d657261626c653a206f776e657220696e646578206f7560008201527f74206f6620626f756e6473000000000000000000000000000000000000000000602082015250565b6000612752602b83611f0c565b915061275d826126f6565b604082019050919050565b6000602082019050818103600083015261278181612745565b9050919050565b7f455243373231456e756d657261626c653a20676c6f62616c20696e646578206f60008201527f7574206f6620626f756e64730000000000000000000000000000000000000000602082015250565b60006127e4602c83611f0c565b91506127ef82612788565b604082019050919050565b60006020820190508181036000830152612813816127d7565b9050919050565b7f4e487b7100000000000000000000000000000000000000000000000000000000600052603260045260246000fd5b7f4552433732313a20696e76616c696420746f6b656e2049440000000000000000600082015250565b600061287f601883611f0c565b915061288a82612849565b602082019050919050565b600060208201905081810360008301526128ae81612872565b9050919050565b7f4552433732313a2061646472657373207a65726f206973206e6f74206120766160008201527f6c6964206f776e65720000000000000000000000000000000000000000000000602082015250565b6000612911602983611f0c565b915061291c826128b5565b604082019050919050565b6000602082019050818103600083015261294081612904565b9050919050565b600081905092915050565b600061295d82611f01565b6129678185612947565b9350612977818560208601611f1d565b80840191505092915050565b600061298f8285612952565b915061299b8284612952565b91508190509392505050565b60006129b38284612952565b915081905092915050565b7f4e487b7100000000000000000000000000000000000000000000000000000000600052601160045260246000fd5b60006129f882611fbc565b9150612a0383611fbc565b925082821015612a1657612a156129be565b5b828203905092915050565b7f4552433732313a207472616e736665722066726f6d20696e636f72726563742060008201527f6f776e6572000000000000000000000000000000000000000000000000000000602082015250565b6000612a7d602583611f0c565b9150612a8882612a21565b604082019050919050565b60006020820190508181036000830152612aac81612a70565b9050919050565b7f4552433732313a207472616e7366657220746f20746865207a65726f2061646460008201527f7265737300000000000000000000000000000000000000000000000000000000602082015250565b6000612b0f602483611f0c565b9150612b1a82612ab3565b604082019050919050565b60006020820190508181036000830152612b3e81612b02565b9050919050565b6000612b5082611fbc565b9150612b5b83611fbc565b9250827fffffffffffffffffffffffffffffffffffffffffffffffffffffffffffffffff03821115612b9057612b8f6129be565b5b828201905092915050565b7f4552433732313a20617070726f766520746f2063616c6c657200000000000000600082015250565b6000612bd1601983611f0c565b9150612bdc82612b9b565b602082019050919050565b60006020820190508181036000830152612c0081612bc4565b9050919050565b7f4552433732313a207472616e7366657220746f206e6f6e20455243373231526560008201527f63656976657220696d706c656d656e7465720000000000000000000000000000602082015250565b6000612c63603283611f0c565b9150612c6e82612c07565b604082019050919050565b60006020820190508181036000830152612c9281612c56565b9050919050565b6000612ca482611fbc565b91507fffffffffffffffffffffffffffffffffffffffffffffffffffffffffffffffff821415612cd757612cd66129be565b5b600182019050919050565b7f4e487b7100000000000000000000000000000000000000000000000000000000600052601260045260246000fd5b6000612d1c82611fbc565b9150612d2783611fbc565b925082612d3757612d36612ce2565b5b828204905092915050565b6000612d4d82611fbc565b9150612d5883611fbc565b925082612d6857612d67612ce2565b5b828206905092915050565b7f4552433732313a206d696e7420746f20746865207a65726f2061646472657373600082015250565b6000612da9602083611f0c565b9150612db482612d73565b602082019050919050565b60006020820190508181036000830152612dd881612d9c565b9050919050565b7f4552433732313a20746f6b656e20616c7265616479206d696e74656400000000600082015250565b6000612e15601c83611f0c565b9150612e2082612ddf565b602082019050919050565b60006020820190508181036000830152612e4481612e08565b9050919050565b600081519050919050565b600082825260208201905092915050565b6000612e7282612e4b565b612e7c8185612e56565b9350612e8c818560208601611f1d565b612e9581611f50565b840191505092915050565b6000608082019050612eb56000830187612051565b612ec26020830186612051565b612ecf60408301856120e7565b8181036060830152612ee18184612e67565b905095945050505050565b600081519050612efb81611e72565b92915050565b600060208284031215612f1757612f16611e3c565b5b6000612f2584828501612eec565b91505092915050565b7f4e487b7100000000000000000000000000000000000000000000000000000000600052603160045260246000fdfea264697066735822122017c2725e63427bb245e8c7a27b479a54b33279a3b6ac4c4df7ce21e7675b3e6264736f6c634300080b0033",
  "immutableReferences": {},
  "source": "pragma solidity ^0.8.0;\n\nimport \"../node_modules/@openzeppelin/contracts/token/ERC721/ERC721.sol\";\nimport \"../node_modules/@openzeppelin/contracts/token/ERC721/extensions/ERC721Enumerable.sol\";\n\n\ncontract CryptoCoders is ERC721 , ERC721Enumerable {\n\n    string[] public coders;\n\n    mapping(string => bool) _coderExists;\n     \n     constructor() ERC721(\"CryptoCoders\" , \"CSS\"){\n\n     }\n\n     function mint(string memory coder) public {\n       require(!_coderExists[coder]);\n       coders.push(coder);\n       uint _id = coders.length-1;\n       _mint(msg.sender , _id); \n       _coderExists[coder] = true;\n     }\n\n     function _beforeTokenTransfer(address from,address to,uint256 tokenId)\n     internal\n     override(ERC721 , ERC721Enumerable)\n     {\n        super._beforeTokenTransfer(from , to , tokenId);\n     }\n\n     function supportsInterface(bytes4 interfaceId)\n     public\n     view\n     override(ERC721 , ERC721Enumerable)\n     returns (bool)\n     {\n       return super.supportsInterface(interfaceId); \n     }\n      \n\n} ",
  "sourcePath": "/Users/ronak/Desktop/Code Projects/CryptoCoders/client/contracts/CryptoCoders.sol",
  "compiler": {
    "name": "solc",
    "version": "0.8.11+commit.d7f03943.Emscripten.clang"
  },
  "schemaVersion": "3.4.8",
  "updatedAt": "2022-07-14T08:12:03.137Z",
  "networkType": "ethereum",
  "devdoc": {
    "kind": "dev",
    "methods": {
      "approve(address,uint256)": {
        "details": "See {IERC721-approve}."
      },
      "balanceOf(address)": {
        "details": "See {IERC721-balanceOf}."
      },
      "getApproved(uint256)": {
        "details": "See {IERC721-getApproved}."
      },
      "isApprovedForAll(address,address)": {
        "details": "See {IERC721-isApprovedForAll}."
      },
      "name()": {
        "details": "See {IERC721Metadata-name}."
      },
      "ownerOf(uint256)": {
        "details": "See {IERC721-ownerOf}."
      },
      "safeTransferFrom(address,address,uint256)": {
        "details": "See {IERC721-safeTransferFrom}."
      },
      "safeTransferFrom(address,address,uint256,bytes)": {
        "details": "See {IERC721-safeTransferFrom}."
      },
      "setApprovalForAll(address,bool)": {
        "details": "See {IERC721-setApprovalForAll}."
      },
      "symbol()": {
        "details": "See {IERC721Metadata-symbol}."
      },
      "tokenByIndex(uint256)": {
        "details": "See {IERC721Enumerable-tokenByIndex}."
      },
      "tokenOfOwnerByIndex(address,uint256)": {
        "details": "See {IERC721Enumerable-tokenOfOwnerByIndex}."
      },
      "tokenURI(uint256)": {
        "details": "See {IERC721Metadata-tokenURI}."
      },
      "totalSupply()": {
        "details": "See {IERC721Enumerable-totalSupply}."
      },
      "transferFrom(address,address,uint256)": {
        "details": "See {IERC721-transferFrom}."
      }
    },
    "version": 1
  },
  "userdoc": {
    "kind": "user",
    "methods": {},
    "version": 1
  }
}